:020000040000FA
:08000000803102288731F12F45
:100D1800FE0012001E00FE0B8D2E003455340034E8
:100D2800AA34003455340034AA34003420000E1795
:100D38001430890B9D2E003220000E13080020006D
:100D48008E151430890BA62E003220008E11080053
:100D58002130890BAD2E000020008E132130890B25
:100D6800B32E000020008E17080023008C018D018F
:100D78008E0121008C018D018E0120008C018D01D6
:100D88008E010E138E118E1708007908FB00780863
:100D9800FA000830FC007B0DFB0CFA0CFC0BCF2E84
:100DA8007A08F0007B08F1008731412786317908FD
:100DB800F1007808F00087314127863108002000CB
:100DC800A900AA01AB01012F20002A082607A000CC
:100DD8002B08273DA1002A352907A80028088600E6
:100DE8008701403FA200413FA30087317427863125
:100DF80001302000AA070030AB3D2B08803AA8003C
:100E08002508803A2802031D0B2F24082A02031CF8
:100E18000E2F0F2FE82E08008631B9268731A33010
:100E28002000AC005530890B172FAC0B172F36302C
:100E38008600003087002D3084000030850008309F
:100E48002000AC0016001A00AC0B262F2D30AC0089
:100E58002C08B5000430A4000030A5002030A600FE
:100E68000030A70035088631E326873120008E013F
:100E78008D018C013E2F80310228F601F70171089F
:100E8800F3007008F2000730F400730DF30CF20C55
:100E9800F40B492F72080139F500F50E20000C08F3
:100EA8007506EF3975068C007035F000710DF1008C
:100EB80086319A2687310130F6070030F73D7708EA
:100EC800803AF20080307202031D6C2F08307602DF
:100ED800031C6F2F702F432F8631A32687310800FC
:100EE80020002108F9002008F8008631C92687313A
:100EF8001430890B7D2F0032013020002205FD00BF
:100F08000C087D06FE397D068C00230D230CA300FA
:100F1800220CA20022080139FD00FD0D0C087D06F7
:100F2800FD397D068C00230D230CA300220CA200A2
:100F380022080139FD00FD0DFD0D0C087D06FB3969
:100F48007D068C00230D230CA300220CA200013087
:100F58002205FD000E087D06FE397D068E00230D54
:100F6800230CA300220CA20022080139FD00FD0D6C
:100F78000E087D06FD397D068E00230D230CA30087
:100F8800220CA20022080139FD00FD0DFD0D0E08FE
:100F98007D06FB397D068E00230D230CA300220C51
:100FA800A20022080139FD00FD0E0D087D06EF396B
:100FB8007D068D00230D230CA300220CA20022081D
:100FC8000139FD00FD0EFD0D0D087D06DF397D069A
:100FD8008D008631AC268731080092308400863037
:100FE80085003630860000308700083086318C2630
:080FF800873120008731102F22
:020000040001F9
:04000E00A409FF3C06
:00000001FF
