:020000040000FA
:08000000803102288731F12F45
:100D0A00FE0012001E00FE0B862E003420000E1775
:100D1A001430890B8E2E003220000E13080020009A
:100D2A008E151430890B972E003220008E11080080
:100D3A002130890B9E2E000020008E132130890B52
:100D4A00A42E000020008E17080023008C018D01BC
:100D5A008E0121008C018D018E0120008C018D01F4
:100D6A008E010E138E118E17080055340034AA34E2
:100D7A00003455340034AA34003455340034AA34CB
:100D8A00003455340034AA3400347908FB0078085A
:100D9A00FA000830FC007B0DFB0CFA0CFC0BD02E81
:100DAA007A08F0007B08F1008731412786317908FB
:100DBA00F1007808F00087314127863108002000C9
:100DCA00A900AA01AB01022F20002A082607A000C9
:100DDA002B08273DA1002A352907A80028088600E4
:100DEA008701403FA200413FA30087317427863123
:100DFA0001302000AA070030AB3D2B08803AA8003A
:100E0A002508803A2802031D0C2F24082A02031CF5
:100E1A000F2F102FE92E08008631AA268731A3301A
:100E2A002000AC005530890B182FAC0B182F3E3020
:100E3A008600003087002D30840000308500103095
:100E4A002000AC0016001A00AC0B272F2D30AC0086
:100E5A002C08BD000830A4000030A5000030A60010
:100E6A00A7003D088631E426873120008E018D01D6
:100E7A008C013E2F80310228F601F7017108F30038
:100E8A007008F2000730F400730DF30CF20CF40B47
:100E9A00492F72080139F500F50E20000C08750675
:100EAA00EF3975068C007035F000710DF10086314E
:100EBA008B2687310130F6070030F73D7708803AF4
:100ECA00F20080307202031D6C2F08307602031C78
:100EDA006F2F702F432F8631942687310800200008
:100EEA002108F9002008F8008631CA268731143013
:100EFA00890B7D2F0032013020002205FD000C08ED
:100F0A007D06FE397D068C00230D230CA300220CDE
:100F1A00A20022080139FD00FD0D0C087D06FD39ED
:100F2A007D068C00230D230CA300220CA2002208AC
:100F3A000139FD00FD0DFD0D0C087D06FB397D060E
:100F4A008C00230D230CA300220CA20001302205E1
:100F5A00FD000E087D06FE397D068E00230D230C4A
:100F6A00A300220CA20022080139FD00FD0D0E0883
:100F7A007D06FD397D068E00230D230CA300220C6D
:100F8A00A20022080139FD00FD0DFD0D0E087D06A7
:100F9A00FB397D068E00230D230CA300220CA20030
:100FAA0022080139FD00FD0E0D087D06EF397D0688
:100FBA008D00230D230CA300220CA2002208013964
:100FCA00FD00FD0EFD0D0D087D06DF397D068D0045
:100FDA0086319D2687310800BA3084008630850024
:100FEA003E308600003087001030863185268731F2
:060FFA0020008731112FD9
:020000040001F9
:04000E00A409FF3C06
:00000001FF
